:100000000C94E6160C9417170C9417170C941717EA
:100010000C9417170C9417170C9417170C941717A8
:100020000C9417170C9417170C9417170C94171798
:100030000C9417170C9417170C9417170C94171788
:100040000C9417170C9408830C9417170C9417171B
:100050000C9417170C9417170C94C7910C94FDCAA5
:100060000C9417170C9419170C9417170C94171756
:100070000C9417170C9417170C9417170C94171748
:100080000C9417170C9417170C9417170C94171738
:100090000C9417170C9417170C9417170C94171728
:1000A0000C9417170C9417170C9417170C94171718
:1000B0000C9417170C9417170C9417170C94171708
:1000C0000C9417170C9417170C9417170C941717F8
:1000D0000C9417170C9417170C9417170C941717E8
:1000E0000C941717BE90CE90ED90FD9018911D9135
:1000F0002091259128912D91309135913F9132CCCD
:1001000037CC3CCC46CC50CCC9CC5ACC62CC6ACC97
:1001100074CC7ECC88CC97CCA1CCC9CCABCCB5CCA4
:10012000BFCCEACCEDCCDCCCE0CCE6CC24CDF1CC21
:10013000F5CCFBCCFFCC03CD09CD0DCD11CD24CD1D
:1001400017CD1BCD1FCD084AD73B3BCE016E84BCDB
:10015000BFFDC12F3D6C74319ABD56833DDA3D0021
:10016000C77F11BED9E4BB4C3E916BAAAABE00006A
:1001700000803F05A84CCDB2D44EB93836A9020C48
:1001800050B9918688083CA6AAAA2ABE0000008021
:100190003F005072696E7465722068616C746564AA
:1001A0002E206B696C6C28292063616C6C6564215E
:1001B0000A004B494C4C45442E20004B494C4C45C1
:1001C000442E200020746F6F206C6F6E672065785E
:1001D00074727573696F6E2070726576656E746582
:1001E000640A0020636F6C642065787472757369AB
:1001F0006F6E2070726576656E7465640A006F6B51
:1002000000526573656E643A20004F6666736574CC
:1002100073206170706C696564004572723A205495
:100220006F6F206661722100546F6F2066617220CB
:1002300066726F6D207265666572656E63652070AB
:100240006F696E740A0043290A0061626C6564205C
:10025000286D696E2074656D702000436F6C64209A
:10026000657874727564657320617265200020641E
:100270003A0020693A0020703A0053657474696E40
:10028000672054726176656C20416363656C6572AA
:100290006174696F6E3A200053657474696E6720EB
:1002A0005265747261637420416363656C65726149
:1002B00074696F6E3A200053657474696E672050DC
:1002C00072696E7420416363656C65726174696FF5
:1002D0006E3A200053657474696E67205072696EBF
:1002E0007420616E642054726176656C2041636392
:1002F000656C65726174696F6E3A20004D313435FA
:1003000020533C696E6465783E206F7574206F667B
:100310002072616E67652028302D31290A00464918
:10032000524D574152455F4E414D453A4D61726CB9
:10033000696E20312E312E302D52433720284769E7
:10034000746875622920534F555243455F434F44AB
:10035000455F55524C3A68747470733A2F2F676931
:10036000746875622E636F6D2F4D61726C696E4695
:1003700069726D776172652F4D61726C696E205084
:10038000524F544F434F4C5F56455253494F4E3A8C
:10039000312E30204D414348494E455F5459504518
:1003A0003A526F73746F636B6C20455854525544C6
:1003B00045525F434F554E543A3120555549443AC2
:1003C00063656465326132662D343161322D3437B4
:1003D00034382D396231322D633535633632663328
:1003E000363766660A00526F73746F636B6C204F0A
:1003F00066662E00526F73746F636B6C207265615A
:1004000064792E0042656420646F6E652E003F0A99
:100410000020573A004265642048656174696E6740
:100420002E0048656174696E6720646F6E652E00EA
:100430003F0A0020573A0048656174696E672E2EA6
:100440002E00526F73746F636B6C207265616479F8
:100450002E006F6B004D3131332053004B494C4C13
:1004600045442E20004543484F00494E464F004525
:1004700052524F52530044525952554E00434F4D21
:100480004D554E49434154494F4E006F66660065D5
:10049000046A046F0476047D0444454255473A00DB
:1004A00048656174696E672E2E2E00526F73746FEB
:1004B000636B6C2072656164792E00256973002579
:1004C000696D20256973002569682025696D2025DF
:1004D000697300256964202569682025696D2025D8
:1004E00069730025697920256964202569682025BC
:1004F000696D20256973005072696E742074696D8E
:10050000653A2000456E642066696C65206C6973ED
:10051000740A00426567696E2066696C65206C69C3
:1005200073740A004E6F206D6F76652E00526F73E4
:10053000746F636B6C2072656164792E0052657311
:10054000756D696E67207072696E740057616974A9
:1005500020666F7220757365722E2E2E0020453A2C
:1005600000205A3A0020593A00583A005761726EFA
:10057000696E673A20486F6D696E672042756D70CD
:100580002044697669736F72203C20310A00536CF5
:100590006565702E2E2E004163746976652045785E
:1005A0007472756465723A20002042403A0020401F
:1005B0003A00202F0020423A00202F0020543A0019
:1005C000627573793A2070617573656420666F7225
:1005D00020696E7075740A00627573793A207061D3
:1005E0007573656420666F7220757365720A0062A8
:1005F0007573793A2070726F63657373696E670AF9
:1006000000220A00556E6B6E6F776E20636F6D6D02
:10061000616E643A20220020496E76616C69642024
:100620006578747275646572200053442072656148
:1006300064206572726F720A00446F6E652070727A
:10064000696E74696E672066696C650A004B494C77
:100650004C45442E200053544F505045442E20000A
:100660005072696E7465722073746F707065642067
:1006700064756520746F206572726F72732E2046E8
:10068000697820746865206572726F7220616E648B
:1006900020757365204D39393920746F2072657368
:1006A000746172742E202854656D70657261747562
:1006B00072652069732072657365742E20536574AA
:1006C000206974206166746572207265737461724A
:1006D00074696E67290A004E6F204C696E65204E62
:1006E000756D626572207769746820636865636BF5
:1006F00073756D2C204C617374204C696E653A20C3
:10070000004E6F20436865636B73756D2077697465
:1007100068206C696E65206E756D6265722C204C68
:10072000617374204C696E653A2000636865636B81
:1007300073756D206D69736D617463682C204C61F5
:100740007374204C696E653A20004C696E65204ECA
:10075000756D626572206973206E6F74204C6173D1
:1007600074204C696E65204E756D6265722B312C5C
:10077000204C617374204C696E653A20004D313114
:100780003000446F6E6520736176696E672066691C
:100790006C652E0A004D3239002020506C616E6E5F
:1007A000657242756666657242797465733A2000B7
:1007B0002046726565204D656D6F72793A20005351
:1007C000657020313420323031360A00436F6D704D
:1007D000696C65643A20002847502C206465666186
:1007E000756C7420636F6E6669672B61646A7573DC
:1007F000746D656E74290A00207C20417574686FE1
:10080000723A2000323031362D30372D33312031DD
:10081000323A303000204C6173742055706461743A
:1008200065643A200020312E312E302D5243370A94
:10083000004D61726C696E0020536F66747761724F
:10084000652052657365740A00205761746368649B
:100850006F672052657365740A002042726F776E6D
:10086000206F75742052657365740A002045787492
:1008700065726E616C2052657365740A00506F7703
:10088000657255700A0073746172740A00220A005E
:10089000656E7175657565696E67202200010101DD
:1008A0000000A0400000A0400000A04000008C43D9
:1008B00000008C430080CF430000000000000000D7
:1008C0000080CF4300000C4300000C430080CF4366
:1008D00000000CC300000CC3000000006563686FDB
:1008E0003A004572726F723A007C3C3E5E2B3D3F8F
:1008F0002F5B5D3B2C2A225C004D3331004D383498
:1009000020582059205A20450043616E6E6F742094
:10091000656E746572207375626469723A20006155
:1009200075746F25692E67006572726F7220777219
:100930006974696E6720746F2066696C650A004E81
:100940006F74205344207072696E74696E670A0078
:100950005344207072696E74696E672062797465A1
:10096000200044656C6574696F6E206661696C6512
:10097000642C2046696C653A200046696C652064E9
:10098000656C657465643A006F70656E20666169B8
:100990006C65642C2046696C653A20005772697456
:1009A000696E6720746F2066696C653A20006F700D
:1009B000656E206661696C65642C2046696C653AD9
:1009C00020006F70656E206661696C65642C20463E
:1009D000696C653A200046696C652073656C6563D7
:1009E0007465640A002053697A653A200046696C90
:1009F00065206F70656E65643A20006F70656E20CB
:100A00006661696C65642C2046696C653A20004E0D
:100A10006F772066726573682066696C653A20009E
:100A20004E6F7720646F696E672066696C653A2047
:100A3000002220706F73002220706172656E743A1C
:100A40002200535542524F5554494E452043414C84
:100A50004C207461726765743A22004B494C4C45D6
:100A6000442E2000747279696E6720746F20636170
:100A70006C6C207375622D67636F64652066696CAA
:100A80006573207769746820746F6F206D616E796B
:100A9000206C6576656C732E204D4158206C657610
:100AA000656C2069733A004D3234004D3233202595
:100AB000730053442063617264206F6B0A006F708F
:100AC000656E526F6F74206661696C65640A0076AA
:100AD0006F6C756D652E696E6974206661696C65F1
:100AE000640A00534420696E6974206661696C0A67
:100AF0000043616E6E6F74206F70656E2073756257
:100B0000646972200020204D3230302044300A00C9
:100B100020204D3230302044002044697361626CE3
:100B200065640A0046696C616D656E742073657456
:100B300074696E67733A0020440020490020204DFC
:100B40003330312050005049442073657474696E0D
:100B500067733A0A0020460020420020204D3134BD
:100B60003520533120480020460020420020204DEF
:100B70003134352053302048004D6174657269610D
:100B80006C2068656174757020706172616D657448
:100B90006572733A0A002043002042002041002081
:100BA000530020520020204D363635204C0044653D
:100BB0006C74612073657474696E67733A204C3D80
:100BC000646961676F6E616C5F726F642C20523D67
:100BD0007261646975732C20533D7365676D656E32
:100BE00074735F7065725F7365636F6E642C204110
:100BF00042433D646961676F6E616C5F726F645FF1
:100C00007472696D5F746F7765725F5B3132335DEB
:100C10000A00205A0020590020204D363636205830
:100C200000456E6473746F702061646A7573746DCF
:100C3000656E7420286D6D293A0A00205A002059EB
:100C40000020204D323036205800486F6D65206FEF
:100C5000666673657420286D6D290A0020450020A2
:100C60005A0020580020420020540020204D3230ED
:100C700035205300416476616E636564207661724D
:100C80006961626C65733A20533D4D696E206665FB
:100C900065647261746520286D6D2F73292C205452
:100CA0003D4D696E2074726176656C206665656481
:100CB0007261746520286D6D2F73292C20423D6D63
:100CC000696E696D756D207365676D656E742074EE
:100CD000696D6520286D73292C20583D6D617869F8
:100CE0006D756D205859206A65726B20286D6D2FC7
:100CF00073292C20205A3D6D6178696D756D205ADD
:100D0000206A65726B20286D6D2F73292C20204579
:100D10003D6D6178696D756D2045206A65726B2047
:100D2000286D6D2F73290A002054002052002020C6
:100D30004D323034205000416363656C65726174DC
:100D4000696F6E733A20503D7072696E74696E6798
:100D50002C20523D7265747261637420616E642050
:100D6000543D74726176656C0A00204500205A007B
:100D700020590020204D3230312058004D617869D3
:100D80006D756D20416363656C65726174696F6E2A
:100D900020286D6D2F7332293A0A00204500205A11
:100DA0000020590020204D3230332058004D61780A
:100DB000696D756D20666565647261746573202860
:100DC0006D6D2F73293A0A00204500205A002059E2
:100DD0000020204D39322058005374657073207004
:100DE000657220756E69743A0A0048617264636FB7
:100DF0006465642044656661756C74205365747421
:100E0000696E6773204C6F616465640A007A5F6D78
:100E100061783A20007A5F6D696E3A2000795F6DE3
:100E200061783A2000785F6D61783A2000526570F1
:100E30006F7274696E6720656E6473746F7020736F
:100E400074617475730A00456E6473746F707320F7
:100E5000256320256320256320256300205A3A005E
:100E600020593A0020583A00656E6473746F7073AD
:100E7000206869743A200020746F6F206C6F6E6771
:100E800020657874727573696F6E2070726576650F
:100E90006E7465640A0020636F6C642065787472F8
:100EA0007573696F6E2070726576656E7465640A1D
:100EB00000205A3A0020593A0020436F756E742082
:100EC000583A20004D383420582059205A204500E7
:100ED00024F4D43050C38E20C2A24017828B7011EC
:100EE000127A910D816CD90AA861E108C75866078A
:100EF000615143061E4B5D05C145A7041A4111040B
:100F0000093D9803713931034036DB0265339102A4
:100F1000D4305402802E1D02632CEE01752AC501C7
:100F2000B028A001102781018F2564012B244B01DB
:100F3000E0223401AC211F018D200D01801FFC0037
:100F4000841EED00971DDF00B81CD200E61BC60012
:100F5000201BBC00641AB200B219A8000A19A00034
:100F60006A189900D117910040178B00B5168400BC
:100F700031167E00B31579003A157300C7146F005F
:100F800058146A00EE1366008813630025135E0090
:100F9000C7125B006C12570015125400C1115100AA
:100FA00070114F0021114B00D61049008D104700E1
:100FB0004610440002104200C00F4000800F3E0067
:100FC000420F3C00060F3B00CB0E3800930E37005B
:100FD0005C0E3500270E3400F30D3200C10D3100D8
:100FE000900D3000600D2E00320D2D00050D2C00EF
:100FF000D90C2B00AE0C2900850C29005C0C2700B5
:10100000350C27000E0C2600E80B2400C40B24002E
:10101000A00B23007D0B23005A0B2100390B21006C
:10102000180B2000F80A1F00D90A1E00BB0A1E0078
:101030009D0A1D00800A1D00630A1C00470A1B0050
:101040002C0A1B00110A1A00F7091A00DD09190001
:10105000C4091900AB091900920917007B0918008F
:10106000630917004C0916003609160020091600FE
:101070000A091500F5081500E0081400CC08140052
:10108000B8081400A4081400900813007D0812008A
:101090006B081300580812004608120034081100AB
:1010A000230811001208110001081100F0071000B8
:1010B000E0071000D0071000C0071000B0070F00B5
:1010C000A107100091070E0083070F0074070F009F
:1010D00065070E0057070E0049070E003B070D007D
:1010E0002E070E0020070D0013070D0006070D0048
:1010F000F9060C00ED060D00E0060C00D4060C000D
:10110000C8060C00BC060C00B0060C00A4060B00C0
:1011100099060C008D060B0082060B0077060B006B
:101120006C060B0061060A0057060B004C060A000D
:1011300042060A0038060A002E060A0024060A00A3
:101140001A060A001006090007060A00FD05090034
:10115000F4050900EB050900E2050900D9050900BD
:10116000D0050900C7050900BE050900B50508003E
:10117000AD050800A50509009C05080094050800B8
:101180008C050800840508007C050800740508002B
:101190006C050700650508005D0507005605080099
:1011A0004E05070047050700400508003805070001
:1011B000310507002A050700230507001C05060066
:1011C000160507000F0507000805060002050700C1
:1011D000FB040600F5040700EE040600E804060020
:1011E000E2040700DB040600D5040600CF04060075
:1011F000C9040600C3040600BD040600B7040600C7
:10120000B1040500AC040600A6040600A004050015
:101210009B04060095040500900406008A0405005E
:1012200085040500800406007A04050075040500A5
:10123000700405006B0405006604050061040500E8
:101240005C04050057040500520405004D04050028
:1012500048040500430405003E0404003A04050068
:1012600035040500300404002C04050027040400A4
:10127000230405001E0404001A04040016040500DB
:10128000110404000D040400090405000404040012
:1012900000040400FC030400F8030400F403040049
:1012A000F0030400EC030400E8030400E40304007A
:1012B000E0030400DC030400D8030400D4030400AA
:1012C000D0030400CC030400C8030300C5030300DB
:1012D00024F404D9201BC40C5C0E9804C4095F02DA
:1012E00065077101F405F900FB04B30048048700A9
:1012F000C10369005803550003034500BE023A00CC
:101300008402310053022A00290225000402200031
:10131000E4011C00C8011900AF0117009801140076
:1013200084011300710110006101100051010E00D1
:1013300043010D0036010B002B010B0020010B00B7
:10134000150109000C01090003010800FB00080059
:10135000F3000800EB000700E4000600DE000600D2
:10136000D8000600D2000600CC000500C70005002A
:10137000C2000500BD000400B9000400B50004006F
:10138000B1000400AD000400A9000400A5000300A2
:10139000A20003009F0004009B00030098000300CC
:1013A0009500020093000300900003008D000200EE
:1013B0008B00030088000200860002008400030006
:1013C000810002007F0002007D0002007B0002001D
:1013D000790002007700010076000200740002002C
:1013E00072000100710002006F0002006D00010038
:1013F0006C0002006A000100690002006700010041
:101400006600010065000100640002006200010046
:1014100061000100600001005F0002005D0001004A
:101420005C0001005B0001005A000100590001004E
:10143000580001005700010056000100550001004E
:10144000540001005300000053000100520001004D
:1014500051000100500001004F0001004E0000004B
:101460004E0001004D0001004C0001004B00000047
:101470004B0001004A000100490001004800000043
:10148000480001004700010046000000460001003E
:101490004500000045000100440001004300000039
:1014A0004300010042000000420001004100000032
:1014B00041000100400001003F0000003F0001002A
:1014C0003E0000003E0001003D0000003D00010024
:1014D0003C0000003C0000003C0001003B0000001C
:1014E0003B0001003A0000003A0001003900000012
:1014F0003900010038000000380000003800010009
:101500003700000037000100360000003600000000
:1015100036000100350000003500000035000100F4
:1015200034000000340000003400010033000000EB
:1015300033000000330001003200000032000000E0
:1015400032000100310000003100000031000100D4
:101550003000000030000000300001002F000000CB
:101560002F0000002F0000002F0001002E000000BF
:101570002E0000002E0001002D0000002D000000B4
:101580002D0000002D0001002C0000002C000000A8
:101590002C0000002C0001002B0000002B0000009C
:1015A0002B0000002B0001002A0000002A00000090
:1015B0002A0000002A000100290000002900000084
:1015C0002900000029000000290001002800000077
:1015D000280000002800000028000000280001006A
:1015E000270000002700000027000000270000005F
:1015F0002700010026000000260000002600000051
:101600002600000026000100250000002500000043
:101610002500000025000000250000002500010035
:10162000240000002400000024000000240000002A
:10163000240001002300000023000000230000001C
:10164000230000002300000023000000230001000D
:101650002200000022000000220000002200000002
:1016600022000000220001002100000021000000F3
:1016700021000000210000002100000021000000E6
:1016800021000100200000002000000020000000D8
:1016900020000000200000002000000020000000CA
:1016A000200001001F0000001F0000001F000000BC
:1016B0001F0000001F0000001F0000001F000100AD
:1016C0001E0000001E0000001E0000001E000000A2
:1016D0004D494E54454D5020747269676765726577
:1016E00064004572723A204D494E54454D50204297
:1016F0004544004D415854454D5020747269676708
:1017000065726564004572723A204D415854454DEA
:10171000502042454400546865726D616C205275DA
:101720006E6177617900544845524D414C205255C5
:101730004E415741590048656174696E6720666182
:10174000696C65640048656174696E6720666169EB
:101750006C65640048656174696E67206661696CD8
:1017600065640048656174696E67206661696C65CF
:1017700064004D494E54454D502074726967676549
:10178000726564004572723A204D494E54454D5081
:10179000004D415854454D50207472696767657219
:1017A0006564004572723A204D415854454D5000D1
:1017B0006265640A002C2073797374656D207374FC
:1017C0006F7070656421204865617465725F49447B
:1017D0003A200023646566696E65202044454641D1
:1017E000554C545F4B64200023646566696E652028
:1017F0002044454641554C545F4B692000236465A5
:1018000066696E65202044454641554C545F4B70D7
:101810002000504944204175746F74756E652066D0
:10182000696E6973686564212050757420746865F9
:10183000206C617374204B702C204B6920616E64A6
:10184000204B6420636F6E7374616E7473206672D4
:101850006F6D2062656C6F7720696E746F20436FC7
:101860006E66696775726174696F6E2E680A0050E2
:101870004944204175746F74756E65206661696CAA
:101880006564212074696D656F75740A0050494460
:10189000204175746F74756E65206661696C65644E
:1018A000212054656D706572617475726520746F66
:1018B0006F20686967680A00204B643A2000204B5B
:1018C000693A2000204B703A200020436C6173730A
:1018D000696320504944200A002054753A200020B2
:1018E0004B753A2000206D61783A2000206D696EBA
:1018F0003A200020643A200020626961733A200097
:1019000070012C0190012701B0012201C0011D01CD
:10191000F00118011002130130020E0160020901EA
:1019200090020401C002FF000003FA004003F5002A
:101930008003F000D003EB002004E6007004E10017
:10194000E004DC004005D700C005D2004006CD0011
:10195000D006C8008007C3003008BE00F008B900F8
:10196000C009B400B00AAF00B00BAA00D00CA500AB
:10197000000EA000500F9B00C01096005012910066
:1019800000148C00C0158700B0178200B0197D00CC
:10199000D01B7800001E730040206E00902269006A
:1019A000F024640040275F0090295A00E02B550086
:1019B000102E500020304B0010324600E033410022
:1019C00090353C001037370070383200A0392D00B8
:1019D000B03A2800A03B2300603C1E00103D1900D7
:1019E000903D1400103E0F00703E0A00C03E0500FE
:1019F000003F0000436172642072656D6F7665641C
:101A0000004361726420696E736572746564004D91
:101A10003432380020003F00092000253032693A76
:101A200025303269005A0059005800466C6F770023
:101A3000466C6F770046616E207370656564004682
:101A4000616E207370656564004265640042656480
:101A5000004E6F7A7A6C65004E6F7A7A6C6500532F
:101A600070656564005370656564004D61696E0062
:101A70004D6F76652058004D6F76652059004D6F8B
:101A80007665205A004578747275646572004578F1
:101A9000747275646572004D6F7665205A004D6FE3
:101AA00076652059004D6F76652058004D6F76653C
:101AB0002061786973004D6F766520302E316D6D31
:101AC000004D6F766520316D6D004D6F766520316C
:101AD000306D6D005072657061726500507265689E
:101AE00065617420504C4120426564005072656805
:101AF00065617420504C41005072657061726500E0
:101B000050726568656174204142532042656400EB
:101B1000507265686561742041425300507265706F
:101B2000617265004D3830005377697463682070C6
:101B30006F776572206F6E004D383100537769748E
:101B4000636820706F776572206F666600436F6F01
:101B50006C646F776E0050726568656174204142F5
:101B600053005072656865617420504C41004D38D7
:101B7000340044697361626C6520737465707065CC
:101B80007273004D6F7665206178697300536574D8
:101B900020686F6D65206F666673657473004732E9
:101BA00038004175746F20686F6D65004D61696E16
:101BB0000042656400426564004E6F7A7A6C65008D
:101BC0004E6F7A7A6C650046616E2073706565644D
:101BD0000046616E2073706565640054656D7065C4
:101BE0007261747572650042656400426564004EFE
:101BF0006F7A7A6C65004E6F7A7A6C650046616E1A
:101C00002073706565640046616E2073706565645D
:101C10000054656D7065726174757265005072650F
:101C2000686561742041425320636F6E6600507294
:101C3000656865617420504C4120636F6E6600508A
:101C400049442D44005049442D44005049442D49F5
:101C5000005049442D49005049442D5000504944FA
:101C60002D50002008204661637400200820466142
:101C70006374002008204D6178002008204D6178B1
:101C8000002008204D696E002008204D696E00413B
:101C900075746F74656D70004F6666004F6E20003E
:101CA00046616E2073706565640046616E207370D6
:101CB0006565640042656400426564004E6F7A7A2F
:101CC0006C65004E6F7A7A6C6500436F6E74726F4C
:101CD0006C004573746570732F6D6D00457374658A
:101CE00070732F6D6D005A73746570732F6D6D0076
:101CF0005A73746570732F6D6D00597374657073CA
:101D00002F6D6D005973746570732F6D6D0058736E
:101D1000746570732F6D6D005873746570732F6DDB
:101D20006D00412D74726176656C00412D74726195
:101D300076656C00412D7265747261637400412D8B
:101D40007265747261637400416D61782045004171
:101D50006D6178204500416D6178205A00416D61C8
:101D600078205A00416D6178205900416D617820DA
:101D70005900416D6178205800416D61782058000C
:101D80005654726176206D696E00565472617620E9
:101D90006D696E00566D696E00566D696E00566D08
:101DA0006178204500566D6178204500566D617858
:101DB000205A00566D6178205A00566D617820597E
:101DC00000566D6178205900566D61782058005694
:101DD0006D617820580056652D6A65726B005665F6
:101DE0002D6A65726B00567A2D6A65726B00567AA1
:101DF0002D6A65726B005678792D6A65726B005694
:101E000078792D6A65726B00416363656C0041638C
:101E100063656C00436F6E74726F6C0046696C2E64
:101E2000204469612E0046696C2E204469612E00B1
:101E30004520696E206D6D33004F6666004F6E2041
:101E400000436F6E74726F6C00526573746F7265CD
:101E5000206661696C736166650046696C616D65D9
:101E60006E74004D6F74696F6E0054656D706572AD
:101E70006174757265004D61696E00022E2E004D11
:101E800061696E004E6F205344206361726400509C
:101E900072696E742066726F6D2053440053746FC4
:101EA00070207072696E7400526573756D65207074
:101EB00072696E74005061757365207072696E741A
:101EC00000436F6E74726F6C005072657061726562
:101ED0000054756E6500496E666F207363726565A8
:101EE0006E00506C65617365207265736574005097
:101EF00052494E5445522048414C54454400000636
:101F00000900FE070192032120FFFF08FF07FF00E1
:101F10000000060000010707060200808080808024
:101F20000080030202060105A0A0050707060000C5
:101F30005050F850F850500507070600002078A0D0
:101F40007028F020050707060000C0C81020409840
:101F5000180507070600006090A040A890680203DB
:101F600003060104C04080030707060100204080EB
:101F70008080402003070706010080402020204089
:101F80008005050506000120A870A82005050506A6
:101F900000012020F820200203030602FFC0408039
:101FA000050101060003F8020202060200C0C00596
:101FB00005050600010810204080050707060000FF
:101FC0007088888888887003070706010040C04031
:101FD000404040E0050707060000708808708080D8
:101FE000F8050707060000F81020100808F005079C
:101FF0000706000010305090F81010050707060083
:1020000000F880F008088870050707060000708057
:1020100080F0888870050707060000F80810202067
:1020200020200507070600007088887088887005E2
:102030000707060000708888780808700205050602
:102040000200C0C000C0C00206060602FFC0C000F9
:10205000C040800407070600001020408040201088
:10206000050303060002F800F804070706010080D4
:1020700040201020408005070706000070880810E7
:1020800020002005070706000070880868A8A870CF
:10209000050707060000708888F888888805070704
:1020A000060000F08888F08888F005070706000021
:1020B00070888080808870050707060000F0888897
:1020C000888888F0050707060000F88080F0808087
:1020D000F8050707060000F88080F080808005077B
:1020E00007060000708880B888887005070706001A
:1020F00000888888F88888880107070602008080A1
:1021000080808080800507070600003810101010BE
:1021100090600507070600008890A0C0A090880581
:102120000707060000808080808080F8050707068A
:10213000000088D8A88888888805070706000088D6
:1021400088C8A898888805070706000070888888CE
:10215000888870050707060000F08888F080808076
:1021600005070706000070888888A890680507079B
:10217000060000F08888F0A0908805070706000098
:10218000788080700808F0050707060000F8202016
:102190002020202005070706000088888888888876
:1021A0007005070706000088888888885020050782
:1021B000070600008888888888A850050707060059
:1021C0000088885020508888050707060000888806
:1021D0008850202020050707060000F8081020403E
:1021E00080F8030707060100E08080808080E0051A
:1021F00005050600018040201008030707060100BE
:10220000E02020202020E005030306000420508861
:10221000050101060000F8020202060205804005E1
:102220000505060000700878887805070706000095
:102230008080B0C88888F0050505060000708080A1
:1022400088700507070600000808689888887805E0
:1022500005050600007088F8807005070706000075
:102260003048E0404040400506060600FF70888880
:102270007808700507070600008080B0C888888845
:102280000107070602008000808080808003080824
:102290000601FF200020202020A0400407070600A0
:1022A00000808090A0C0A090030707060100C040F6
:1022B00040404040E0050505060000D0A8A8A8A8B9
:1022C000050505060000B0C88888880505050600D4
:1022D0000070888888700506060600FFF08888F080
:1022E00080800506060600FF7888887808080505BE
:1022F00005060000B0C88080800505050600007056
:10230000807008F00407070600004040E0404040AD
:1023100030050505060000888888986805050506CB
:10232000000088888850200505050600008888A8D8
:10233000A8500505050600008850205088050606AF
:102340000600FF888888780870050505060000F8F3
:10235000102040F80307070601002040408040405D
:1023600020010707060200808080808080800307AC
:102370000706010080404020404080050202060020
:102380000268900000000600000000000600000047
:10239000000006000000000006000000000006002B
:1023A0000000000006000000000006000000000021
:1023B000060000000000060000000000060000000B
:1023C00000000600000000000600000000000600FB
:1023D00000000000060000000000060000000000F1
:1023E00006000000000006000000000006000000DB
:1023F00000000600000000000600000000000600CB
:1024000000000000060000000000060000000000C0
:1024100006000000000006000000000006000000AA
:10242000000006000000000006000000000006009A
:102430000000000006000000000006000000000090
:102440000600000000000600000000000600000179
:10245000070706020080008080808080050707064D
:1024600000002070A8A0A870200507070600003013
:102470004040E04050A805050506000088705070F7
:1024800088050707060000885020F820F82001077B
:102490000706020080808000808080050808060012
:1024A000003048205050209060030101060107A031
:1024B000050707060000F888B8B8B888F8050707C8
:1024C000060001700878887800F805050506000107
:1024D0002850A05028050303060001F8080802024E
:1024E000020602064080050707060000F888A88853
:1024F00098A8F8050101060006F804040406000384
:10250000609090600507070600002020F82020005A
:10251000F804050506000360902040F00305050659
:102520000003E020E020E0020202060206408005EF
:1025300008080600FF8888888898E88080050707D3
:10254000060000789898781818180202020602020D
:10255000C0C00202020602FF408003050506000318
:1025600040C04040E0050707060001708888887079
:1025700000F8050505060001A0502850A005070732
:102580000600008890A858B808080507070600004C
:102590008890B848982038050808060000C040C058
:1025A00048D83808080507070600002000204080AA
:1025B00088700508080600004020007088F88888A8
:1025C0000508080600001020007088F888880508B3
:1025D000080600002050007088F888880508080662
:1025E00000006890007088F88888050808060000D8
:1025F0005000708888F88888050808060000205078
:10260000207088F888880507070600003860A0B8A1
:10261000E0A0B80508080600FF7088808088702058
:1026200060050808060000402000F880F080F805EA
:102630000808060000081000F880F080F805080877
:10264000060000205000F880F080F805070706001B
:10265000005000F880F080F8030808060100804070
:1026600000E0404040E0030808060100204000E090
:10267000404040E003080806010040A000E0404060
:1026800040E0030707060100A000E0404040E005ED
:102690000707060000704848E84848700508080623
:1026A000000068900088C8A89888050808060000FF
:1026B000402070888888887005080806000010206F
:1026C000708888888870050808060000205000700F
:1026D000888888700508080600006890007088885F
:1026E0008870050808060000500070888888887087
:1026F00005050506000188502050880508080600D9
:10270000FF1070A8A8A8A87040050808060000409F
:1027100020888888888870050808060000102088AE
:10272000888888887005080806000020500088887E
:102730008888700508080600005000888888888806
:102740007005080806000010208850202020200571
:1027500009090600FFC040704848704040E0040886
:10276000080601FF609090A09090E08005080806A0
:1027700000004020007008788878050808060000EE
:10278000102000700878887805080806000020509E
:1027900000700878887805080806000068900070C6
:1027A00008788878050707060000500070087888C8
:1027B0007805080806000020502070087888780501
:1027C0000606060000D02878A0A8500506060600D8
:1027D000FF70808870206005080806000040200017
:1027E0007088F880700508080600001020007088C6
:1027F000F880700508080600002050007088F880F6
:102800007005070706000050007088F88070030804
:102810000806010080400040C04040E00308080670
:10282000010020400040C04040E0030808060100CD
:1028300040A00040C04040E0030707060100A000A0
:1028400040C04040E0050707060000A040A0107807
:102850008870050808060000689000B0C88888885D
:102860000508080600004020007088888870050868
:102870000806000010200070888888700508080687
:102880000000205000708888887005080806000045
:10289000689000708888887005070706000050005F
:1028A00070888888700505050600012000F8002062
:1028B0000507070600FF1070A8A8A87040050808C3
:1028C00006000040200088888898680508080600EF
:1028D00000102000888888986805080806000020F5
:1028E000500088888898680507070600005000880F
:1028F000888898680509090600FF102000888888E4
:10290000F808700407070601FFC04060506040E00F
:102910000508080600FF50008888887808700006BF
:102920000900FE000000000001090008FE0000058B
:10293000080806000040F0C8888898781005080844
:10294000060000C0F88888888888F8050505060014
:10295000012030F830200508080600002070F8201B
:10296000202020E00509090600FF2070A8A8B888EB
:102970008870200509090600FFE080C0B0A8283053
:1029800028280509090600FFF8A88888888888A8EB
:10299000F8050A0A0600FE205050505088A8A88862
:1029A0007003030306000340A04000000000000085
:1029B0000000000000007FFFE000000000000000B9
:1029C00000000000007000E00000000000000000B7
:1029D0000000000061F8600000000000000000003E
:1029E00000000041F820000000000000000000008E
:1029F000000040F020000000000000000000000087
:102A00000040602000000000000000000000000006
:102A10005801A07F80000000000000004104005C1D
:102A200063A0FFC0000000000000002082005EF7ED
:102A3000A0FFC0000000000000002082005EF7A0A0
:102A4000FFC0000000000000004104005C63A07FA4
:102A500080000000000000008208005801A07F8074
:102A600000000000000001041000406020FFC000D2
:102A700000000000000104100040F020FFC0000032
:102A8000000000000082080041F820FFC0000000A4
:102A90000000000041040061F8603F0000000000F9
:102AA0000000000000007000E01E000000000000B8
:102AB0000001FFFF807FFFE00C000000000000002D
:102AC00001FFFF8000000000000000000000000087
:102AD0000000007FFFE00000000000000000000098
:102AE00000007000E0000000000000000000000096
:102AF00000630C6000000000000000000000000007
:102B0000470E200000000000000000000000004F01
:102B10000F200000000000000000000000005F0F18
:102B2000A00000000000000000000000005E07A000
:102B30007F8000000000000000410400406020FF92
:102B4000C00000000000000020820040F020FFC014
:102B50000000000000000020820040F020FFC000C4
:102B60000000000000004104004060207F80000061
:102B700000000000008208005E07A07F80000000C7
:102B8000000000010410005F0FA0FFC00000000063
:102B90000000010410004F0F20FFC00000000000E3
:102BA0000000820800470E20FFC000000000000067
:102BB00000410400630C603F0000000000000000C2
:102BC0000000007000E01E0000000000000001FF97
:102BD000FF807FFFE00C0000000000000001FFFF0D
:102BE000800000001FFFFFFFFFFFFF6000000000EC
:102BF00001FF400000000000FF8000000000007F97
:102C000083CF00000C303F87FF80000C301F867997
:102C100080000C000F8C30C7838C30E78C30CFC71E
:102C2000CC31F38C30DCECEC33B98C30D86C6C33B9
:102C3000198C30D06C0C33198C30D86C0C33198C47
:102C400030DC6C0E3B198C30CF7C079F198C30C761
:102C50007C038F19400000000000026000000000AB
:102C600000061FFFFFFFFFFFF800000A0B02090C20
:102C70000D0E080703040100000000000000000022
:102C80000000000000000000000000000000000044
:102C90000000000000121110000000000000000001
:102CA0000000000000000000000000000000000123
:102CB000021020200808102040102040800201024D
:102CC0000108040201010204081020408080402015
:102CD0001008040201800402018040201008040250
:102CE00001080402010102040810204080010204CE
:102CF000081020408005050505070508080808029A
:102D00000202020A0A080804040404010101010184
:102D10000101010303030303030303040707070C73
:102D20000C0C0C0C0C0C0C02020202060606060629
:102D30000606060B0B0B0B0B0B0B0B0000200023E6
:102D400000260029002C002F0032000001000003A3
:102D5000010601090100002200250028002B002E99
:102D6000003100340002010000050108010B0100E0
:102D7000002100240027002A002D0030003300012C
:102D8000010000040107010A014E414E494E495419
:102D900059494E46CDCCCC3D0AD7233C17B7D13844
:102DA00077CC2B329595E6241FB14F0A00002041C5
:102DB0000000C84200401C4620BCBE4CCA1B0E5A34
:102DC000AEC59D74D247F17CECC49F4811241FBE50
:102DD000CFEFD1E2DEBFCDBF00E00CBF14E0A0E03A
:102DE000B2E0EEE6F3EB01E00BBF02C007900D92FC
:102DF000AC33B107D9F725E1ACE3B4E001C01D92D3
:102E0000A735B207E1F71DE2CAECDDE200E006C03B
:102E100022970109FE010BBF0E9476D2C43CD10764
:102E200080E00807A9F70E94EBCD0C94A6D90C947A
:102E300000001F920F920FB60F9211240BB60F9243
:102E40002F933F938F939F93EF93FF932091C6000F
:102E50009FB7F894E091BD0481E08E0F8F77309199
:102E6000BE04831731F0F0E0E35CFB4F20838093D6
:102E7000BD049FBFFF91EF919F918F913F912F9143
:102E80000F900BBE0F900FBE0F901F9018959A01D8
:102E9000AB01211581EE38074105510549F182E06A
:102EA0008093C00060E079E08DE390E00E942FD233
:102EB0002150310941095109CA01B90122E030E02C
:102EC00040E050E00E942FD23093C5002093C40010
:102ED0008091C10080618093C1008091C1008860B1
:102EE0008093C1008091C10080688093C1000895E3
:102EF0001092C00020E130E0E7CF8091C00087FF52
:102F000014C02091C6009FB7F894E091BD0481E001
:102F10008E0F8F773091BE04831731F0F0E0E35CC1
:102F2000FB4F20838093BD049FBF08953FB7F89463
:102F30002091BE048091BD04821759F0E22FF0E089
:102F4000E35CFB4F808190E02F5F2F772093BE04DE
:102F500002C08FEF9FEF3FBF08952FB7F894809185
:102F6000BD049091BE042FBF891B8F7708958FB742
:102F7000F8949091BE049093BD048FBF0895809102
:102F8000C00085FFFCCF6093C60008954F925F920A
:102F90006F927F928F929F92AF92BF92CF92DF9269
:102FA000EF92FF920F931F93CF93DF93CDB7DEB7CE
:102FB000A0970FB6F894DEBF0FBECDBF5C014115E0
:102FC000510561057105C1F460E3A0960FB6F89450
:102FD000DEBF0FBECDBFDF91CF911F910F91FF904C
:102FE000EF90DF90CF90BF90AF909F908F907F90A9
:102FF0006F905F904F90C3CF8E010F5F1F4FC12C1A
:10300000D12C76014801422E512C612C712C8FEF6E
:10301000C81AD80AE80AF80ACB01BA01A30192013A
:103020000E940DD2CA01F80161938F01A901BC0170
:10303000411551056105710551F7F1E0CF1AD1082D
:10304000E108F108F401EC0DFD1D60816A3010F417
:10305000605D01C0695CC50192DF81E0C81AD108DA
:10306000E108F108EFEFCE16DE06EE06FE0651F798
:10307000A0960FB6F894DEBF0FBECDBFDF91CF9103
:103080001F910F91FF90EF90DF90CF90BF90AF9086
:103090009F908F907F906F905F904F900895211533
:1030A000310511F4642F6BCF71CFCF92DF92EF9285
:1030B000FF92CF93DF93EC016A017B0177FF0AC097
:1030C0006DE25DDFF094E094D094C094C11CD11CFB
:1030D000E11CF11C2AE0B701A601CE01DF91CF91DE
:1030E000FF90EF90DF90CF9051CF2115310511F473
:1030F000642F45CF2A30310509F4D7CF47CF9A0145
:10310000AB01662757FD6095762FEFCFCF93DF9306
:10311000EC016DE034DF6AE0CE01DF91CF912FCF7B
:10312000CF93DF93EC019A01AB0160E070E0B7DF71
:10313000CE01DF91CF91EACF8F929F92AF92BF9253
:10314000CF92DF92EF92FF921F93CF93DF93EC0128
:103150006A017B01122F20E030E0A901C701B6010E
:103160000E94D3CE87FF07C06DE2CE0108DFF7FAD9
:10317000F094F7F8F094B12C60E070E080E09FE309
:10318000B11641F020E030E040E251E40E94DACE96
:10319000B394F6CF9B01AC01C701B6010E94FACDF2
:1031A0006B017C010E9447CF4B015C010E9473CFF1
:1031B0009B01AC01C701B6010E94F9CD6B017C01F6
:1031C0002AE0B501A401CE01E1DE112319F06EE27F
:1031D000CE01D5DE112319F120E030E040E251E4C8
:1031E000C701B6010E9411D16B017C010E9442CF40
:1031F0004B01AA2497FCA094BA2CB501A401CE01DE
:1032000054DFC501B4010E9475CF9B01AC01C70119
:10321000B6010E94F9CD6B017C011150DBCFDF912B
:10322000CF911F91FF90EF90DF90CF90BF90AF9024
:103230009F908F90089580CFFC0165917591859145
:1032400094910895CF93DF93C9E6D5E0FE01649190
:10325000662329F08CE394E092DE2196F7CF40912B
:103260008A0750918B0760918C0770918D0722E03F
:1032700030E08CE394E0DFDFC5E6D5E0FE01649149
:10328000662329F08CE394E07ADE2196F7CF409113
:103290008E0750918F07609190077091910722E0FF
:1032A00030E08CE394E0C7DFC1E6D5E0FE01649135
:1032B000662329F08CE394E062DE2196F7CF4091FB
:1032C000920750919307609194077091950722E0BF
:1032D00030E08CE394E0AFDFCDE5D5E0FE01649112
:1032E000662329F08CE394E04ADE2196F7CF4091E3
:1032F000960750919707609198077091990722E07F
:1033000030E08CE394E097DFDF91CF910C946484FC
:10331000CF92DF92EF92FF920F931F93CF93DF93A1
:10332000EC010E9447CB0E811F812885398501154C
:1033300011052105310559F53C853323A9F12A856D
:1033400031503C8731E0320F3A874D85341301C04C
:103350001A86FE0134E0239FE00DF11D112406853D
:103360001785208931890A831B832C833D836B0158
:103370007C01C00ED11EE11CF11CCE82DF82E886EA
:10338000F9868C819D81892B79F0409A0DC06B0163
:103390007C01C01AD10AE20AF30AF7FC05C0409882
:1033A0001E821F8218861986DF91CF911F910F917F
:1033B000FF90EF90DF90CF9008950E9447CB6093ED
:1033C000B4057093B5058093B6059093B70508953D
:1033D000EF92FF920F931F93CF93DF93EC017B014A
:1033E0008A016C854D8564130AC0E881F9810190DA
:1033F000F081E02DCE0119950E94FC8EF2CFF701ED
:1034000020813181F801808191815B85FE0174E02A
:10341000579FE00DF11D11243E9631832083938345
:1034200082836F5F6C8781E0850F841711F08B8733
:1034300001C01B86DF91CF911F910F91FF90EF90FC
:103440000895CF92DF92EF92FF920F931F93CF9345
:10345000DF93EB01FC0160817181828193812CE318
:10346000C22ED12CE12CF12CA70196010E940DD285
:10347000162F072FCA01B901A70196010E940DD28C
:10348000F62EE72ECA01B90128E130E040E050E015
:103490000E940DD2FB01C9016DE671E00E94E6D1E8
:1034A0009B014F2D5E2D21153105D9F00F931F93F0
:1034B000EF92FF92FF93EF939F938F933F932F93FE
:1034C00083EE94E09F938F93DF93CF930E94E1D696
:1034D0008DB79EB70E960FB6F8949EBF0FBE8DBFE8
:1034E0005BC00097C9F00F931F93EF92FF92FF9379
:1034F000EF939F938F9383ED94E09F938F93DF934C
:10350000CF930E94E1D6EDB7FEB73C960FB6F89484
:10351000FEBF0FBEEDBF40C03097B9F00F931F93B1
:10352000EF92FF92FF93EF9387EC94E09F938F933A
:10353000DF93CF930E94E1D68DB79EB70A960FB660
:10354000F8949EBF0FBE8DBF27C0452BA9F00F93E7
:103550001F93EF92FF928FEB94E09F938F93DF93F3
:10356000CF930E94E1D6EDB7FEB738960FB6F89428
:10357000FEBF0FBEEDBF10C00F931F938BEB94E007
:103580009F938F93DF93CF930E94E1D60F900F907C
:103590000F900F900F900F90DF91CF911F910F918F
:1035A000FF90EF90DF90CF9008950F931F93CF93EC
:1035B000DF93EC018B01FE016491662329F08CE31B
:1035C00094E0DDDC2196F7CF4AE050E0B8018CE3CF
:1035D00094E0DF91CF911F910F9191CDCF92DF9227
:1035E000EF92FF92CF93DF93EC016A017B01FE0122
:1035F0006491662329F08CE394E0C1DC2196F7CF37
:103600002AE030E0B701A6018CE394E0DF91CF918E
:10361000FF90EF90DF90CF9068CDCF92DF92EF9246
:10362000FF92CF93DF93EC016A017B01FE0164916D
:10363000662329F08CE394E0A2DC2196F7CF22E008
:1036400030E0B701A6018CE394E0DF91CF91FF90C9
:10365000EF90DF90CF90EFCDCF92DF92EF92FF927D
:10366000CF93DF93EC016A017B01FE016491662335
:1036700029F08CE394E083DC2196F7CF22E030E060
:10368000B701A6018CE394E0DF91CF91FF90EF901A
:10369000DF90CF90D0CDCF92DF92EF92FF92CF9379
:1036A000DF93EC016A017B01FE016491662329F03E
:1036B0008CE394E064DC2196F7CF2AE030E0B70198
:1036C000A6018CE394E0DF91CF91FF90EF90DF9023
:1036D000CF90E5CC26E937E042E957E06EE877E0A5
:1036E0008AE897E00C945C7B8091E6058093E7057F
:1036F0001092E50508952091E60530E0F901E65DB8
:10370000FA4F8083C9010196837099278093E6055B
:103710008091E5058F5F8093E5050895CF93FC01C7
:10372000C62F80818B3399F08091E505843078F441
:103730002091E60530E6239FC0011124BF0184518A
:103740009A4F0E94BDD68C2FD6DF81E001C080E069
:10375000CF9108950F931F93CF93DF938C01DEDFFA
:10376000882359F1CCEDD8E0FE016491662329F05D
:103770008CE394E004DC2196F7CFC0E9D8E0FE01A9
:103780006491662329F08CE394E0F9DB2196F7CF6E
:10379000E8016991662321F08CE394E0F0DBF9CF36
:1037A000CDE8D8E0FE016491662329F08CE394E033
:1037B000E6DB2196F7CF81E001C080E0DF91CF9179
:1037C0001F910F910895DF92EF92FF920F931F9335
:1037D000CF93DF93CDB7DEB76E970FB6F894DEBF09
:1037E0000FBECDBF6091B8057091B9056115710527
:1037F00059F14DE150E08E010F5F1F4FC8010E944B
:103800004CD61E8EF8017F01E01AF10AD190DD201E
:1038100019F08AE0D812F7CFF801EE0DFF1D1082E3
:1038200060E0C80197DF882379F0DD20B1F08FEFE9
:10383000E81AF80A8091B8059091B9058E0D9F1D80
:103840009093B9058093B80581E02091B805309137
:10385000B905232B39F480E005C01092B905109208
:10386000B805F2CF6E960FB6F894DEBF0FBECDBF8F
:10387000DF91CF911F910F91FF90EF90DF9008950E
:103880009093B9058093B8059ECF9898A09A089513
:10389000269A2E9A0895CF92DF92EF92FF920F937D
:1038A0001F93CF93DF9380919D07882309F4D4C0A1
:1038B0008091E505811102C01092C204FF24F394A7
:1038C0004091190A50911A0A60911B0A70911C0AC2
:1038D0008091150A9091160AA091170AB091180AC2
:1038E000481759076A077B0708F4F12CC0E0D0E0BD
:1038F000EE24E39430E6D32E8091E505843008F081
:10390000ABC0F110A9C08091C2048111A5C0809103
:10391000700990917109A0917209B0917309809317
:10392000190A90931A0AA0931B0AB0931C0A88E6FE
:1039300099E00E94664DC82EFF24F3940091190A65
:1039400010911A0A20911B0A30911C0A4091150A05
:103950005091160A6091170A7091180A04171507FA
:103960002607370740F4F12C8F3F2FEF920731F4F1
:1039700002EE18E02AC009E316E013C0EAE08E1751
:1039800009F43EC0FDE08F1709F43AC023E2821724
:1039900019F0EAE38E1347C02091C104211143C0FE
:1039A0002AC0F8016491662331F08CE394E0E7DAF1
:1039B0000F5F1F4FF6CF8BE997E00E945F6361E0D6
:1039C0008BE997E00E94455E16C0F801649166237A
:1039D00031F08CE394E0D3DA0F5F1F4FF6CF0AE2A9
:1039E00016E0F8016491662331F08CE394E0C7DAC5
:1039F0000F5F1F4FF6CFF3E2CF1202C0E092C20476
:103A00001092C104209709F477CF8091E605D89EE3
:103A1000C00DD11D1124C451DA4F188280E06BDE35
:103A2000C0E0D0E069CFCF35D10508F065CF2BE3FA
:103A3000C21202C0E092C1042091C10421115CCFE6
:103A40009091E605FE01D99EE00DF11D1124E4518F
:103A5000FA4F8083219650CFDF91CF911F910F9124
:103A6000FF90EF90DF90CF9008950F931F93CF9327
:103A7000DF930091BA051091BB0565E470E0C801C1
:103A80000E94A9D6EC01C8010196209761F0188226
:103A900060E070E00E947AD225E42883DF91CF9124
:103AA0001F910F91089560E070E0DF91CF911F9119
:103AB0000F910C947AD28091BA059091BB054AE09F
:103AC00050E060E070E001960C9413D58091BA0547
:103AD0009091BB054AE050E060E070E001960C94E4
:103AE000E2D38091BA059091BB054AE050E060E0D6
:103AF00070E001960E94E2D3CB0108958091BA054F
:103B00009091BB054AE050E060E070E001960E94B1
:103B100013D5CB0108958091BA059091BB054AE079
:103B200050E060E070E001960E94E2D397FD20C073
:103B30008091BA059091BB054AE050E060E070E0EA
:103B400001960E94E2D36F3F71058105910509F04E
:103B500064F48091BA059091BB054AE050E060E0C2
:103B600070E001960E94E2D301C06FEF862F0895A6
:103B700080E008957ACF79CF78DF20E030E04AE71F
:103B800054E40E9411D10C9447CF682F772767FD2A
:103B900070958091E8059091E9050E94A9D69093CF
:103BA000BB058093BA0521E0892B09F420E0822F20
:103BB00008950F931F93CF93DF938C0184E5E5DF86
:103BC000882331F1A8DF882309F1CCEDD8E0FE018C
:103BD0006491662329F08CE394E0D1D92196F7CF44
:103BE0006DE48CE394E0CBD94AE050E0B8018CE37B
:103BF00094E085DA90DF682F70E087E196E0D5DC0D
:103C00006AE08CE394E0BBD981E007C084DF02C0A6
:103C10008091BF058093830580E0DF91CF911F9154
:103C20000F9108958F929F92AF92BF92CF92EF9291
:103C3000FF920F931F93CF93DF93790180904002FF
:103C400090904102A0904202B0904302EC01CC0F50
:103C5000DD1FCC0FDD1FFE01E657F84F4083518377
:103C60006283738320E030E0A901B801C7010E949C
:103C7000D3CE811106C0CF58DC4F08811981EA806C
:103C8000FB80C801D7018093400290934102A0932A
:103C90004202B093430220E030E040E752E4B80132
:103CA000C7010E94DACEC090BF057B018C0126E9D6
:103CB00037E042E957E06EE877E08AE897E00E9453
:103CC00051710E94A5838092400290924102A0927D
:103CD0004202B0924302DF91CF911F910F91FF906A
:103CE000EF90CF90BF90AF909F908F90089580E11C
:103CF000EAE7F7E0AAE8B7E001900D928A95E1F7CC
:103D00000895CF92DF92EF92FF920F931F93CF937C
:103D1000DF93FDE6EF2EF3E0FF2E0AE717E0CAE897
:103D2000D7E0ABEDCA2EA5E0DA2EF70181917F0135
:103D30002CDF8823C9F099DEF6012081211104C00F
:103D40002091BE05222329F0288139814A815B8197
:103D500003C020E030E0A9010E94FACDF8016083A1
:103D600071838283938309C088819981AA81BB81F1
:103D7000F80180839183A283B3830C5F1F4F249645
:103D8000FFEFCF1ADF0A81E7E81683E0F80669F64D
:103D900086E4FBDE882389F068DE20E030E0A901BC
:103DA0000E94D6D018164CF460DE609340027093E7
:103DB00041028093420290934302DF91CF911F9181
:103DC0000F91FF90EF90DF90CF900895CF93DF9306
:103DD000CCEDD8E0FE016491662329F08CE394E0F9
:103DE000CED82196F7CFC4E0D6E0FE0164916623D9
:103DF00029F08CE394E0C3D82196F7CFC091EA056F
:103E0000D091EB056991662321F08CE394E0B7D85B
:103E1000F9CFC1E0D6E0FE016491662329F08CE37E
:103E200094E0ADD82196F7CFDF91CF910895CF924E
:103E3000DF92EF92FF92CF93DF930E9447CB6B010B
:103E40007C0180910602882309F469C0209128052D
:103E5000309129052115310509F461C080912405AF
:103E600090912505A0912605B0912705B701A601DF
:103E7000481B590B6A0B7B0B77FD64C0233031055F
:103E800079F03CF4213031050CF449C0CCEDD8E098
:103E90000AC02430310509F042C0CCEDD8E02BC077
:103EA000CCEDD8E014C0FE016491662329F08CE3C8
:103EB00094E065D82196F7CFCFEED5E0FE0164916E
:103EC000662369F18CE394E05AD82196F7CFFE017E
:103ED0006491662329F08CE394E051D82196F7CFC2
:103EE000C8EDD5E0FE0164916623C9F08CE394E04F
:103EF00046D82196F7CFFE016491662329F08CE322
:103F000094E03DD82196F7CFC0ECD5E0FE01649156
:103F1000662329F08CE394E032D82196F7CF2091E4
:103F2000060230E0A8EEB3E00E9451D26C0D7D1D78
:103F30008E1D9F1D60932405709325058093260593
:103F400090932705DF91CF91FF90EF90DF90CF9076
:103F500008950F931F93CF93DF93CDB7DEB7699783
:103F60000FB6F894DEBF0FBECDBF82EA95E00E9487
:103F700019856E8B7F8B888F998FBE016F5F7F4F06
:103F8000CE0146965EDA60E0CE0101960E943BA328
:103F90000CED18E0F8016491662339F08CE394E0AD
:103FA0000E94BF170F5F1F4FF5CF07EF14E0F80116
:103FB0006491662339F08CE394E00E94BF170F5F91
:103FC0001F4FF5CF8E010F5F1F4FF80161918F01D9
:103FD000662329F08CE394E00E94BF17F6CF6AE0D5
:103FE0008CE394E00E94BF178091630C8823F9F062
:103FF0001092630C6091591270915A12882777FDC4
:104000008095982F0E9475CF20914A0230914B02E3
:1040100040914C0250914D020E94D6D018163CF4AB
:1040200010925A121092591280E00E9435896996B6
:104030000FB6F894DEBF0FBECDBFDF91CF911F91B9
:104040000F9108951F93CF93DF9380919D07811166
:104050000E94A583C091E805D091E90561E270E076
:10406000CE010E94A9D6009711F0EC01219680E5BF
:104070008CDD882341F011E08091BA059091BB0559
:104080008C179D0708F010E080919E07882379F136
:10409000212F41E0BE018BE997E00E94835F83E519
:1040A00074DD882339F08091BA059091BB058C1797
:1040B0009D0768F08BE997E00E94115C111117C011
:1040C00082EA95E0DF91CF911F910C944685FEDC4A
:1040D000AB01BC014093190A50931A0A60931B0A62
:1040E00070931C0A88E699E00E94334EE3CFDF917B
:1040F000CF911F9108950F931F93CF93DF9383E583
:1041000044DD882371F1EDDC8C018F3F910509F0CE
:1041100040F580E53ADD882329F0E3DCEC0197FDEA
:1041200020C002C0CDE0D0E0EDE1F3E081919191BB
:10413000C817D907B1F083E0ED36F807B9F761E0A9
:104140008C2F0E9425CD602F8C2F0E945ECDB80150
:104150008C2F0E940FCC299721F41093C105009356
:10416000C005DF91CF911F910F91089588E690E0EF
:1041700020DD811136C080919A0783FD32C083E52E
:1041800004DD882371F171DC0E9442CF70935A12D2
:104190006093591280E00E94358967DC20E030E0AE
:1041A0004AEA52E40E94D3CE18164CF082EA95E017
:1041B0000E94EC8460E08BEA94E00E9403A555DC49
:1041C00020916112309162124091631250916412F9
:1041D0000E94D6D018162CF460E080EA94E00C948B
:1041E00003A50895CF93DF93CCEBD5E0FE01649156
:1041F000662331F08CE394E00E94BF172196F6CF3E
:104200004091611250916212609163127091641238
:1042100021E030E08CE394E00ED8C9EBD5E0FE015C
:104220006491662331F08CE394E00E94BF172196DD
:10423000F6CF6091591270915A12882777FD8095B8
:10424000982F0E9475CFAB01BC0121E030E08CE3D8
:1042500094E00E941B19C5EBD5E0FE016491662332
:1042600031F08CE394E00E94BF172196F6CF409185
:104270005D1250915E1260915F127091601221E0A8
:1042800030E08CE394E00E941B19C2EBD5E0FE0104
:104290006491662331F08CE394E00E94BF1721966D
:1042A000F6CF6091551270915612882777FD809550
:1042B000982F0E9475CFAB01BC0121E030E08CE368
:1042C00094E00E941B19CEEAD5E0FE0164916623BA
:1042D00031F08CE394E00E94BF172196F6CF8091D5
:1042E000830590E00E942A864AE050E0BC018CE3FE
:1042F00094E00E947F18C9EAD5E0FE01649166232C
:1043000031F08CE394E00E94BF172196F6CF8FEF37
:104310009FEF0E942A864AE050E0BC018CE394E0C3
:10432000DF91CF910C947F18DF92EF92FF920F9361
:104330001F93CF93DF9383E528DC882311F0EBDB19
:1043400001C080E080939A07CCEDD8E0FE01649133
:10435000662331F08CE394E00E94BF172196F6CFDC
:10436000C9E9D4E0FE016491662331F08CE394E066
:104370000E94BF172196F6CF80919A07811103C042
:10438000CBE8D4E03EC00FE814E0C0E0D0E020E08D
:1043900080919A0790E00C2E02C0959587950A941B
:1043A000E2F780FF19C0DD24D394D20E222329F036
:1043B0006CE28CE394E00E94BF17F801E590F49062
:1043C000F7016491662349F08CE394E00E94BF17E3
:1043D0003FEFE31AF30AF4CFD22E21960E5F1F4F60
:1043E000C530D10561F46AE08CE394E0DF91CF91B0
:1043F0001F910F91FF90EF90DF900C94BF172D2D20
:10440000C7CFFE016491662371F38CE394E00E94B0
:10441000BF172196F6CFCF93DF9383E5B6DB8111EB
:1044200003C0CCEDD8E009C076DB8D3308F08CE317
:1044300080930602DF91CF910895FE016491662377
:1044400031F08CE394E00E94BF172196F6CF4091A3
:10445000060250E060E070E085E594E01CD96AE077
:104460008CE394E0DF91CF910C94BF17CF93DF934F
:1044700083E58BDB8823F9F034DB8230C8F0C2EEB1
:10448000D8E0FE016491662331F08CE394E00E9451
:10449000BF172196F6CFCCEFD2E0FE0164916623E0
:1044A00009F483C08CE394E00E94BF172196F5CFF6
:1044B000813009F43EC088E468DB882389F011DB91
:1044C0008A3A91053CF08530F1E09F072CF084E0BA
:1044D00091E002C08AEA90E09093471580934615D8
:1044E00086E453DB882379F0FCDA8F3F910519F0DD
:1044F00014F08FEF90E097FF02C080E090E090937F
:1045000043158093421582E440DB882309F44DC0B3
:10451000E8DA8530910534F0883891052CF087E889
:1045200090E002C085E090E090934515809344159B
:104530003CC088E42ADB882389F0D3DA8A3A9105E3
:104540003CF0853021E092072CF084E091E002C03D
:104550008AEA90E0909341158093401586E415DB3C
:10456000882379F0BEDA8F3F910519F014F08FEFB0
:1045700090E097FF02C080E090E090933D1580931B
:104580003C1582E402DB882381F0ABDA85309105AB
:1045900034F0883891052CF087E890E002C085E07F
:1045A00090E090933F1580933E15DF91CF91089551
:1045B00083E5EBDA882351F0DFDA6093170270931A
:1045C00018028093190290931A02089588E5DDDAA3
:1045D00081110EC089E5D9DA81110AC08AE5D5DAE0
:1045E000811106C085E4D1DA811102C00C942184C6
:1045F0000E94A58388E5C9DA882319F05F9A109292
:10460000770789E5C2DA882319F08A9A1092780729
:104610008AE5BBDA882351F09FB7F89480910801AE
:104620008160809308019FBF1092790785E4ADDA1D
:10463000882311F0129A089508953F924F925F9245
:104640006F927F928F929F92AF92BF92CF92DF92A2
:10465000EF92FF920F931F93CF93DF93BDE68B2EC4
:10466000B3E09B2EC8EBDCE018ECA12E1CE0B12ED1
:1046700008E91CE0312CF40181914F0186DA88238E
:1046800009F456C0F3E03F124EC0EFD96B017C0134
:1046900020E030E040EA51E40E94D3CE87FF3EC0E4
:1046A000A7019601688179818A819B810E94DACE77
:1046B0002B013C019B01AC016091680C7091690C6D
:1046C00080916A0C90916B0C0E9411D16093680CE0
:1046D0007093690C80936A0C90936B0CA301920108
:1046E000F50160817181828193810E9411D1F50170
:1046F0006083718382839383F801608171818281F9
:1047000093810E9473CFA30192010E9411D10E9454
:1047100047CFF8016083718382839383C882D982F3
:10472000EA82FB8205C0A1D9688379838A839B834F
:1047300033942496F4E0AF0EB11C0C5F1F4F84E05D
:10474000381299CFDF91CF911F910F91FF90EF9089
:10475000DF90CF90BF90AF909F908F907F906F90A1
:104760005F904F903F900C94937C83E50EDA882302
:10477000E1F07BD9AB01BC0140937C0C50937D0CE4
:1047800060937E0C70937F0C4093740C5093750C67
:104790006093760C7093770C84ED92E00E940D1B71
:1047A0006AE08CE394E00E94BF1780E5EED988238D
:1047B000A1F05BD9AB01BC0140937C0C50937D0C04
:1047C00060937E0C70937F0C87EB92E00E940D1B30
:1047D0006AE08CE394E00E94BF1782E5D6D9882373
:1047E000A1F043D9AB01BC014093780C5093790CF4
:1047F00060937A0C70937B0C88E992E00E940D1B09
:104800006AE08CE394E00E94BF1784E5BED9882358
:10481000A1F02BD9AB01BC014093740C5093750CE3
:104820006093760C7093770C8AE792E00E940D1BE0
:104830006AE08CE394E00C94BF17089583E5A5D952
:10484000882349F012D96093800C7093810C809377
:10485000820C9093830C84E598D9882349F005D97C
:104860006093640C7093650C8093660C9093670C56
:1048700082E48BD9882349F01ED96093840C70930D
:10488000850C8093860C9093870C88E57ED98823CD
:1048900049F0EBD86093700C7093710C8093720C9C
:1048A0009093730C8AE571D9882349F0DED8609320
:1048B0006C0C70936D0C80936E0C90936F0C85E470
:1048C00064D9882349F0D1D86093680C7093690C3F
:1048D00080936A0C90936B0C0895CF93DF9300D074
:1048E0001F92CDB7DEB783E550D9882311F006D9E2
:1048F00002C084E091E09C838B8380E546D98823C5
:1049000041F0FCD8893823E1920728F088E893E148
:1049100002C088EE93E09A838983AE014D5F5F4FBA
:10492000BE016F5F7F4F84E895E00E94E8190F9009
:104930000F900F900F90DF91CF910895CF93DF9359
:1049400085E423D981110EC080E51FD9882389F021
:104950008CD860936C0270936D0280936E0290937A
:104960006F0207C0BED81816190674F7C2EED8E059
:1049700093C089E40AD9882379F077D82CE933E504
:1049800049E45EE30E9411D160936802709369026A
:1049900080936A0290936B0284E4F7D8882379F0BD
:1049A00064D82CE933E549E45EE30E94DACE6093F3
:1049B00064027093650280936602909367020E947E
:1049C0001386CCEDD8E0FE016491662331F08CE3D0
:1049D00094E00E94BF172196F6CFC6E7D2E0FE0111
:1049E0006491662331F08CE394E00E94BF17219616
:1049F000F6CF40916C0250916D0260916E02709101
:104A00006F0222E030E08CE394E00E941B19C2E7C1
:104A1000D2E0FE016491662331F08CE394E00E94C1
:104A2000BF172196F6CF2CE933E549E45EE36091A8
:104A300068027091690280916A0290916B020E94F3
:104A4000DACEAB01BC0122E030E08CE394E00E94BE
:104A50001B19CEE6D2E0FE016491662331F08CE3AF
:104A600094E00E94BF172196F6CF2CE933E549E484
:104A70005EE360916402709165028091660290919C
:104A800067020E9411D1AB01BC0122E030E08CE34F
:104A900094E00E941B1914C0FE016491662331F05A
:104AA0008CE394E00E94BF172196F6CFCDEFD2E0C1
:104AB0006991662329F08CE394E00E94BF17F8CF38
:104AC0006AE08CE394E0DF91CF910C94BF17CF9311
:104AD000DF9383E55AD8C82F8823A1F00E94351DA3
:104AE000609360027093610280936202909363020C
:104AF000D1E020E030E0A9010E94D3CE8111D0E0C6
:104B0000D093471280E541D88823D1F020E030E0EF
:104B1000A90160916002709161028091620290919E
:104B200063020E94D3CE882339F00E948B1D91E04E
:104B3000811103C090E001C091E09093471234C00E
:104B4000C11132C0CCEDD8E0FE016491662331F092
:104B50008CE394E00E94BF172196F6CF61E070E0ED
:104B60008BE592E00E94D51A20E030E040E05FE360
:104B70006091600270916102809162029091630283
:104B80000E94FACD0E9442CF8AE492E00E94D51A98
:104B9000C6E4D2E0FE016491662331F08CE394E038
:104BA0000E94BF172196F6CFDF91CF910895EF9223
:104BB000FF920F93CF93DF9385E40E94C51D882356
:104BC00021F00E94711DEC0102C0C0E0D0E083E43E
:104BD0000E94C51D882321F00E94711D7C0103C025
:104BE00005E0E02EF12C85E50E94C51D882329F003
:104BF0000E948B1D01E0811101C000E083E50E944D
:104C0000C51D882319F00E94351D06C0D7FD09C0B7
:104C100060E070E086E193E4209739F41092830518
:104C200004C060E070E08CE892E4109229051092D4
:104C300028059701AE010E94F78981E090E09093EA
:104C4000290580932805DF91CF910F91FF90EF9078
:104C50000895CF93DF938093BF05CCEDD8E0FE019C
:104C60006491662331F08CE394E00E94BF17219693
:104C7000F6CFC7E9D5E0FE016491662331F08CE3FD
:104C800094E00E94BF172196F6CF6091BF0570E0B7
:104C90004AE050E08CE394E00E947F186AE08CE3E5
:104CA00094E0DF91CF910C94BF17CF93DF930E94D4
:104CB000DD19E091E705F0E0E65DFA4F8081882399
:104CC00099F0CEEFD1E0FE016491662331F08CE3E0
:104CD00094E00E94BF172196F6CF6AE08CE394E03F
:104CE000DF91CF910C94BF17DF91CF910895CF93AF
:104CF000DF938CE394E00E94B717C1E0D2E0FE019D
:104D00006491662331F08CE394E00E94BF172196F2
:104D1000F6CF40916C0750916D0760916E077091CE
:104D20006F074F5F5F4F6F4F7F4F2AE030E08CE39C
:104D300094E00E9475186AE08CE394E00E94BF172B
:104D4000DF91CF91B2CFFF920F931F93CF93DF9359
:104D5000EC01F62E02EE18E0F8016491662339F0BA
:104D60008CE394E00E94BF170F5F1F4FF5CFFE0149
:104D70006491662331F08CE394E00E94BF17219682
:104D8000F6CF40916C0750916D0760916E0770915E
:104D90006F072AE030E08CE394E00E9475186AE027
:104DA0008CE394E00E94BF17F110A1DF1092BD05C3
:104DB0001092BC05DF91CF911F910F91FF90089544
:104DC000CF92DF92EF92FF92CF93DF93EC01C090EE
:104DD0002802D0902902E0902A02F0902B02A7012D
:104DE0009601688179818A819B810E94D3CE87FF59
:104DF00004C0C882D982EA82FB82C0902C02D09083
:104E00002D02E0902E02F0902F02A70196016C81F6
:104E10007D818E819F810E94D3CE87FF04C0CC828A
:104E2000DD82EE82FF82C0903002D0903102E090AD
:104E30003202F0903302A7019601688579858A8550
:104E40009B850E94D3CE87FF04C0C886D986EA8698
:104E5000FB86C0901C02D0901D02E0901E02F090D4
:104E60001F02A7019601688179818A819B810E9436
:104E7000D6D0181624F4C882D982EA82FB82C09068
:104E80002002D0902102E0902202F0902302A7019C
:104E900096016C817D818E819F810E94D6D01816EB
:104EA00024F4CC82DD82EE82FF82C0902402D09076
:104EB0002502E0902602F0902702A701960168855E
:104EC00079858A859B850E94D6D0181624F4C886D9
:104ED000D986EA86FB86DF91CF91FF90EF90DF9035
:104EE000CF9008954F925F926F927F928F929F9290
:104EF000AF92BF92CF92DF92EF92FF9249015A0197
:104F000020E030E0A9010E94FACD6B017C0127ED81
:104F100033EB4DE55FEB0E9411D160935A0570931E
:104F20005B0580935C0590935D0520E030E040E0F8
:104F30005FEBC701B6010E9411D12B013C016093C8
:104F4000560570935705809358059093590527EDA2
:104F500033EB4DE55FE3C701B6010E9411D16093C9
:104F600052057093530580935405909355054092D4
:104F70004E0550924F056092500570925105109267
:104F80004A0510924B0510924C0510924D05C092A7
:104F90004605D0924705E0924805F09249052091D8
:104FA0004205309143054091440550914505C501A6
:104FB000B4010E94FACD9B01AC010E9411D1609313
:104FC0003605709337058093380590933905209105
:104FD0003E0530913F054091400550914105C50186
:104FE000B4010E94FACD9B01AC010E9411D16093E3
:104FF00032057093330580933405909335052091E5
:105000003A0530913B0540913C0550913D05C50165
:10501000B4010E94FACD9B01AC010E9411D16093B2
:105020002E0570932F058093300590933105FF90E6
:10503000EF90DF90CF90BF90AF909F908F907F9038
:105040006F905F904F9008958CE40E94C51D882357
:1050500051F00E94351D60930F02709310028093EF
:1050600011029093120282E50E94C51D882351F01F
:105070000E94351D609313027093140280931502F1
:105080009093160283E50E94C51D882351F00E946B
:10509000351D60930B0270930C0280930D02909368
:1050A0000E0281E40E94C51D882351F00E94351D27
:1050B00060934205709343058093440590934505A2
:1050C00082E40E94C51D882351F00E94351D609323
:1050D0003E0570933F05809340059093410583E41E
:1050E0000E94C51D882351F00E94351D60933A052A
:1050F00070933B0580933C0590933D0520910F02F2
:1051000030911002409111025091120260911302ED
:10511000709114028091150290911602E3CE4F9285
:105120005F926F927F928F929F92AF92BF92CF9237
:10513000DF92EF92FF92CF93DF93CDB7DEB7289740
:105140000FB6F894DEBF0FBECDBF7C012091C20523
:105150003091C3054091C4055091C505FC016081A3
:105160007181828193810E94F9CD2091CE05309189
:10517000CF054091D0055091D1050E94F9CD2B016A
:105180003C012091C6053091C7054091C80550915A
:10519000C905F70164817581868197810E94F9CDE7
:1051A0002091D2053091D3054091D4055091D50579
:1051B0000E94F9CD4B015C012091CA053091CB05CD
:1051C0004091CC055091CD05F701608571858285B0
:1051D00093850E94F9CD2091D6053091D705409155
:1051E000D8055091D9050E94F9CD6B017C01A3012E
:1051F000920160915A0570915B0580915C059091D8
:105200005D050E94F9CD69837A838B839C83A50118
:1052100094016091560570915705809158059091C1
:1052200059050E94F9CD6D837E838F8398872981EC
:105230003A814B815C81CA01B9010E9411D19B0165
:10524000AC016091360570913705809138059091D9
:1052500039050E94F9CD69837A838B839C832D81E4
:105260003E814F815885CA01B9010E9411D19B012D
:10527000AC0169817A818B819C810E94F9CD0E9469
:105280007ED1A70196010E94FACD609376057093B6
:1052900077058093780590937905A3019201609139
:1052A00052057091530580915405909155050E94C7
:1052B000F9CD69837A838B839C83A50194016091E6
:1052C0004E0570914F0580915005909151050E94B7
:1052D000F9CD6D837E838F83988729813A814B81B5
:1052E0005C81CA01B9010E9411D19B01AC0160919E
:1052F00032057091330580913405909135050E94F7
:10530000F9CD69837A838B839C832D813E814F8184
:105310005885CA01B9010E9411D19B01AC01698174
:105320007A818B819C810E94F9CD0E947ED1A70158
:1053300096010E94FACD60937A0570937B05809365
:105340007C0590937D05A301920160914A057091BF
:105350004B0580914C0590914D050E94F9CD2B0194
:105360003C01A5019401609146057091470580912B
:105370004805909149050E94F9CD4B015C01A301BC
:105380009201C301B2010E9411D19B01AC01609155
:105390002E0570912F0580913005909131050E9466
:1053A000F9CD2B013C01A5019401C501B4010E9476
:1053B00011D19B01AC01C301B2010E94F9CD0E9441
:1053C0007ED1A70196010E94FACD60937E0570936D
:1053D0007F05809380059093810528960FB6F894F9
:1053E000DEBF0FBECDBFDF91CF91FF90EF90DF907A
:1053F000CF90BF90AF909F908F907F906F905F9075
:105400004F9008958AE897E08ADE26E937E04EE774
:1054100055E06AE775E086E795E00C945C7B1F93A6
:10542000CF93DF930E94451C0E94481C40E950ED39
:1054300063E070E08CE394E00E944717C6E8D8E090
:10544000FE016491662331F08CE394E00E94BF1763
:105450002196F6CFCCEDD8E0FE016491662331F0C1
:105460008CE394E00E94BF172196F6CF14B710FD8D
:1054700003C011FD10C00CC0CDE7D8E0FE0164915F
:105480006623B9F38CE394E00E94BF172196F6CF10
:1054900012FD10C00CC0CCE6D8E0FE01649166237A
:1054A000B9F38CE394E00E94BF172196F6CF13FD69
:1054B00010C00CC0CAE5D8E0FE0164916623B9F3C0
:1054C0008CE394E00E94BF172196F6CF15FD11C022
:1054D0000CC0C9E4D8E0FE0164916623B9F38CE303
:1054E00094E00E94BF172196F6CF14BEC1E3D8E026
:1054F0000CC0C8E3D8E0FE0164916623B1F38CE3ED
:1055000094E00E94BF172196F6CFFE0164916623B6
:1055100031F08CE394E00E94BF172196F6CFC5E2EC
:10552000D8E0FE016491662331F08CE394E00E94A0
:10553000BF172196F6CFCCEDD8E0FE01649166232B
:1055400031F08CE394E00E94BF172196F6CFC5E1BD
:10555000D8E0FE016491662331F08CE394E00E9470
:10556000BF172196F6CFC4E0D8E0FE016491662310
:1055700031F08CE394E00E94BF172196F6CFC8EF7C
:10558000D7E0FE016491662331F08CE394E00E9441
:10559000BF172196F6CFC7EDD7E0FE0164916623D1
:1055A00031F08CE394E00E94BF172196F6CFCCEC4B
:1055B000D7E0FE016491662331F08CE394E00E9411
:1055C000BF172196F6CFCFEBD7E0FE01649166239B
:1055D00031F08CE394E00E94BF172196F6CFCCED1A
:1055E000D8E0FE016491662331F08CE394E00E94E0
:1055F000BF172196F6CFC0EBD7E0FE01649166237A
:1056000031F08CE394E00E94BF172196F6CF0E9400
:1056100098534AE050E0BC018CE394E00E947F186C
:10562000C9E9D7E0FE016491662331F08CE394E090
:105630000E94BF172196F6CF4AE050E060ED74E07B
:105640008CE394E00E947F186AE08CE394E00E946F
:10565000BF1781E080932A0580932B0580932C054A
:1056600080932D050E94E26380E00E9492658CE0A9
:10567000E2ECF5E0AAE8B7E001900D928A95E1F737
:10568000C1DE85E692E10E9488880E9411C50E94D1
:105690002F830E9479A564EC79E080E090E0DF91AF
:1056A000CF911F910C94F1C4CF92DF92EF92FF92B1
:1056B0000F931F930E94DD198AE797E030DD20E009
:1056C00030E040E752E460914002709141028091E5
:1056D0004202909143020E94DACE6B017C016091FC
:1056E0003E0270913F02882777FD8095982F0E9497
:1056F00075CF9B01AC01C701B6010E9411D12AE010
:1057000037ED43E25CE30E9411D1C090BF057B01FD
:105710008C0126E837E04EE755E06AE775E086E75A
:1057200095E00E9451711F910F91FF90EF90DF90D3
:10573000CF900C94771ECF92DF92EF92FF92CF938F
:10574000DF93CDB7DEB72C970FB6F894DEBF0FBE50
:10575000CDBF20E030E0A9016091C2057091C30582
:105760008091C4059091C5050E94FACD2091CE0587
:105770003091CF054091D0055091D1050E94FACDCE
:1057800069837A838B839C8320E030E0A901609158
:10579000C6057091C7058091C8059091C9050E9402
:1057A000FACD2091D2053091D3054091D405509186
:1057B000D5050E94FACD6D837E838F83988720E084
:1057C00030E0A9016091CA057091CB058091CC05AC
:1057D0009091CD050E94FACD2091D6053091D70544
:1057E0004091D8055091D9050E94FACD69877A87F2
:1057F0008B879C87CE01019692DCC0907E05D0906D
:105800007F05E0908005F090810520E030E04CE0DD
:1058100053E46091C6057091C7058091C8059091C9
:10582000C9050E94FACD2091D2053091D30540914F
:10583000D4055091D5050E94FACD6D837E838F8368
:105840009887CE0101966BDC20917E0530917F0513
:105850004091800550918105C701B6010E94F9CDA4
:105860006B017C0120E030E0A9010E94D6D018161F
:1058700024F0C701B601905802C0C701B6012C96AA
:105880000FB6F894DEBF0FBECDBFDF91CF91FF9072
:10589000EF90DF90CF900895AF92BF92CF92DF92BA
:1058A000EF92FF920F931F93CF93DF938C01EC0144
:1058B000CC0FDD1FCC0FDD1FFE01EE53FA4F20E0B1
:1058C00030E0A90160817181828193810E94FACDCB
:1058D000FE01E253FA4F20813181428153810E94BF
:1058E000FACD6B017C01CE018053974F0E941C19A9
:1058F0009E01285D3D4F5901A70196010E94FACDF6
:10590000F5016083718382839383CE018C53974F1B
:105910000E941C19A70196010E94FACD6B017C011F
:10592000C45EDD4F688379838A839B8302301105CF
:1059300079F401DF9B01AC01C701B6010E94F9CDEA
:1059400060930702709308028093090290930A0201
:10595000DF91CF911F910F91FF90EF90DF90CF904B
:10596000BF90AF9008952F923F924F925F926F92A7
:105970007F928F929F92AF92BF92CF92DF92EF92DF
:10598000FF920F931F93CF93DF9300D000D0CDB73A
:10599000DEB76C01FC01E356F74F14917C01EE0C6D
:1059A000FF1CEE0CFF1CC7018657984F1C01FC0121
:1059B00010821182128213820E946A1BC7018455D1
:1059C000974F0E941C194B015C01612F772767FDDF
:1059D0007095872F972F0E9475CF2B013C0120E0F7
:1059E00030E040EC5FE3C501B4010E9411D1A30196
:1059F00092010E9411D1AB01BC0100E010E09801BE
:105A0000C6010E94121EF1011082118212821382BD
:105A10000E946A1BC7018056974F1C010E941C19E7
:105A20009058A30192010E9411D1AB01BC0100E08A
:105A300010E09801C6010E94121E86E0E7ECF2E039
:105A4000DE01119601900D928A95E1F7F601EE0FB5
:105A5000FF1F81E090E08C0F9D1FE80FF91F608110
:105A6000718116161706E4F00CED18E0F801649148
:105A7000662339F08CE394E00E94BF170F5F1F4F3D
:105A8000F5CF0CE615E0F8016491662339F08CE35C
:105A900094E00E94BF170F5F1F4FF5CF6AE070E0E0
:105AA000882777FD8095982F0E9475CF9B01AC01C8
:105AB000F701EF58FC4F60817181828193810E94D0
:105AC000DACE4B015C01C1010E941C199B01AC01A3
:105AD0000E94FACDA30192010E9411D1AB01BC0139
